{
  "contractName": "Blueprint",
  "abi": [
    {
      "inputs": [],
      "stateMutability": "nonpayable",
      "type": "constructor"
    },
    {
      "anonymous": false,
      "inputs": [
        {
          "indexed": false,
          "internalType": "string",
          "name": "key",
          "type": "string"
        },
        {
          "indexed": false,
          "internalType": "string",
          "name": "newValue",
          "type": "string"
        }
      ],
      "name": "ValueChanged",
      "type": "event"
    },
    {
      "anonymous": false,
      "inputs": [
        {
          "indexed": false,
          "internalType": "string",
          "name": "key",
          "type": "string"
        }
      ],
      "name": "ValueRemoved",
      "type": "event"
    },
    {
      "inputs": [],
      "name": "last_completed_migration",
      "outputs": [
        {
          "internalType": "uint256",
          "name": "",
          "type": "uint256"
        }
      ],
      "stateMutability": "view",
      "type": "function",
      "constant": true
    },
    {
      "inputs": [],
      "name": "owner",
      "outputs": [
        {
          "internalType": "address",
          "name": "",
          "type": "address"
        }
      ],
      "stateMutability": "view",
      "type": "function",
      "constant": true
    },
    {
      "inputs": [
        {
          "internalType": "uint256",
          "name": "completed",
          "type": "uint256"
        }
      ],
      "name": "setCompleted",
      "outputs": [],
      "stateMutability": "nonpayable",
      "type": "function"
    },
    {
      "inputs": [
        {
          "internalType": "string",
          "name": "key",
          "type": "string"
        },
        {
          "internalType": "string",
          "name": "value",
          "type": "string"
        }
      ],
      "name": "store",
      "outputs": [],
      "stateMutability": "nonpayable",
      "type": "function"
    },
    {
      "inputs": [
        {
          "internalType": "string",
          "name": "key",
          "type": "string"
        }
      ],
      "name": "load",
      "outputs": [
        {
          "internalType": "string",
          "name": "",
          "type": "string"
        }
      ],
      "stateMutability": "view",
      "type": "function",
      "constant": true
    },
    {
      "inputs": [
        {
          "internalType": "string",
          "name": "key",
          "type": "string"
        }
      ],
      "name": "remove",
      "outputs": [],
      "stateMutability": "nonpayable",
      "type": "function"
    }
  ],
  "bytecode": "0x6080604052336000806101000a81548173ffffffffffffffffffffffffffffffffffffffff021916908373ffffffffffffffffffffffffffffffffffffffff160217905550600060035534801561005557600080fd5b50610a9a806100656000396000f3fe608060405234801561001057600080fd5b50600436106100625760003560e01c8063445df0ac1461006757806380599e4b146100855780638da5cb5b146100a15780638e0e9a28146100bf578063f641090c146100ef578063fdacd5761461010b575b600080fd5b61006f610127565b60405161007c91906104dc565b60405180910390f35b61009f600480360381019061009a9190610651565b61012d565b005b6100a96101ac565b6040516100b691906106db565b60405180910390f35b6100d960048036038101906100d49190610651565b6101d0565b6040516100e6919061077e565b60405180910390f35b610109600480360381019061010491906107a0565b610283565b005b61012560048036038101906101209190610844565b610348565b005b60015481565b60028160405161013d91906108ad565b90815260200160405180910390206000808201600061015c91906103e0565b6001820160006101000a81549060ff021916905550507f1c724ccbb123f3275b359352a1b2bf1fde1777af5286628be6faf2df9e51f89c816040516101a1919061077e565b60405180910390a150565b60008054906101000a900473ffffffffffffffffffffffffffffffffffffffff1681565b60606002826040516101e291906108ad565b908152602001604051809103902060000180546101fe906108f3565b80601f016020809104026020016040519081016040528092919081815260200182805461022a906108f3565b80156102775780601f1061024c57610100808354040283529160200191610277565b820191906000526020600020905b81548152906001019060200180831161025a57829003601f168201915b50505050509050919050565b6003600081548092919061029690610953565b9190505550806002836040516102ac91906108ad565b908152602001604051809103902060000190805190602001906102d0929190610420565b5060016002836040516102e391906108ad565b908152602001604051809103902060010160006101000a81548160ff0219169083151502179055507f239747dab7046e5d3c295d335f2759559f55344dadbfa668569bb8b0f11b5c10828260405161033c92919061099b565b60405180910390a15050565b60008054906101000a900473ffffffffffffffffffffffffffffffffffffffff1673ffffffffffffffffffffffffffffffffffffffff163373ffffffffffffffffffffffffffffffffffffffff16146103d6576040517f08c379a00000000000000000000000000000000000000000000000000000000081526004016103cd90610a44565b60405180910390fd5b8060018190555050565b5080546103ec906108f3565b6000825580601f106103fe575061041d565b601f01602090049060005260206000209081019061041c91906104a6565b5b50565b82805461042c906108f3565b90600052602060002090601f01602090048101928261044e5760008555610495565b82601f1061046757805160ff1916838001178555610495565b82800160010185558215610495579182015b82811115610494578251825591602001919060010190610479565b5b5090506104a291906104a6565b5090565b5b808211156104bf5760008160009055506001016104a7565b5090565b6000819050919050565b6104d6816104c3565b82525050565b60006020820190506104f160008301846104cd565b92915050565b6000604051905090565b600080fd5b600080fd5b600080fd5b600080fd5b6000601f19601f8301169050919050565b7f4e487b7100000000000000000000000000000000000000000000000000000000600052604160045260246000fd5b61055e82610515565b810181811067ffffffffffffffff8211171561057d5761057c610526565b5b80604052505050565b60006105906104f7565b905061059c8282610555565b919050565b600067ffffffffffffffff8211156105bc576105bb610526565b5b6105c582610515565b9050602081019050919050565b82818337600083830152505050565b60006105f46105ef846105a1565b610586565b9050828152602081018484840111156106105761060f610510565b5b61061b8482856105d2565b509392505050565b600082601f8301126106385761063761050b565b5b81356106488482602086016105e1565b91505092915050565b60006020828403121561066757610666610501565b5b600082013567ffffffffffffffff81111561068557610684610506565b5b61069184828501610623565b91505092915050565b600073ffffffffffffffffffffffffffffffffffffffff82169050919050565b60006106c58261069a565b9050919050565b6106d5816106ba565b82525050565b60006020820190506106f060008301846106cc565b92915050565b600081519050919050565b600082825260208201905092915050565b60005b83811015610730578082015181840152602081019050610715565b8381111561073f576000848401525b50505050565b6000610750826106f6565b61075a8185610701565b935061076a818560208601610712565b61077381610515565b840191505092915050565b600060208201905081810360008301526107988184610745565b905092915050565b600080604083850312156107b7576107b6610501565b5b600083013567ffffffffffffffff8111156107d5576107d4610506565b5b6107e185828601610623565b925050602083013567ffffffffffffffff81111561080257610801610506565b5b61080e85828601610623565b9150509250929050565b610821816104c3565b811461082c57600080fd5b50565b60008135905061083e81610818565b92915050565b60006020828403121561085a57610859610501565b5b60006108688482850161082f565b91505092915050565b600081905092915050565b6000610887826106f6565b6108918185610871565b93506108a1818560208601610712565b80840191505092915050565b60006108b9828461087c565b915081905092915050565b7f4e487b7100000000000000000000000000000000000000000000000000000000600052602260045260246000fd5b6000600282049050600182168061090b57607f821691505b60208210810361091e5761091d6108c4565b5b50919050565b7f4e487b7100000000000000000000000000000000000000000000000000000000600052601160045260246000fd5b600061095e826104c3565b91507fffffffffffffffffffffffffffffffffffffffffffffffffffffffffffffffff82036109905761098f610924565b5b600182019050919050565b600060408201905081810360008301526109b58185610745565b905081810360208301526109c98184610745565b90509392505050565b7f546869732066756e6374696f6e206973207265737472696374656420746f207460008201527f686520636f6e74726163742773206f776e657200000000000000000000000000602082015250565b6000610a2e603383610701565b9150610a39826109d2565b604082019050919050565b60006020820190508181036000830152610a5d81610a21565b905091905056fea264697066735822122051dbe6f06ade0b7e9cc85d31a8af6edd9d8b9e0bd03bc6f319fc62a0210c276764736f6c634300080e0033",
  "immutableReferences": {},
  "source": "// SPDX-License-Identifier: SimPL-3.0\npragma solidity ^0.8.14;\n\nimport \"./Migrations.sol\";\n// interface DiceInterfce{\n//     function loseDice() external returns(uint256 winningNum,bytes32 randHash);\n\n//     function test(uint _uid,string memory _value)external ;\n\n//     function test2(uint _key) external view returns(string memory);\n\n//     function test4() external pure returns(uint);\n// }\n\n// A template contract that is just a string-to-string map.\ncontract Blueprint is Migrations {\n    event ValueChanged(string key, string newValue);\n    event ValueRemoved(string key);\n\n    mapping (string => User) database;\n\n    struct User\n    {\n        string name;\n        bool exist;\n    }\n\n    \n    uint count = 0;\n\n    //DiceInterfce _DiceInterfce = DiceInterfce(0x1B1c8941430132eE378eDD1cb5833c0883C7ebE8) ;\n\n    constructor() {\n        \n    }\n\n    function store(string memory key, string memory value) public {\n        count++;\n        database[key].name = value;\n        database[key].exist = true;\n        emit ValueChanged(key, value);\n    }\n\n    function load(string memory key) public view returns(string memory) {\n        //require(database[key].exist,\"not existprople\");\n        return database[key].name;  \n        //require(keccak256(abi.encode(database[key])) == keccak256(abi.encode(\"\")),\"key not exist mapping.\");\n    }\n\n    function remove(string memory key) public {\n        delete database[key];\n        emit ValueRemoved(key);\n    }\n\n    //uint256 winCount;\n    //bytes32 currentRandom;\n\n    // function loseDice() public returns(uint256 winningNum,bytes32 randHash){\n    //     (winCount,currentRandom) = _DiceInterfce.loseDice();\n    //     return (winCount,currentRandom);\n    // }\n\n    // function getWinCount() public view returns(uint256 winningNum)\n    // {\n    //     return winCount;\n    // }\n\n    // function getCurrentRandomCount() public view returns(bytes32 randHash)\n    // {\n    //     return currentRandom;\n    // }\n    // function getIndex() public  pure  returns(uint randHash)\n    // {\n    //     return 100;\n    // }\n\n    // function diceSetStore(uint _uid,string memory _value) public {\n    //     _DiceInterfce.test(_uid, _value);\n    // }\n\n    // function diceLoad(uint _uid) public view returns(string memory value) {\n    //    value = _DiceInterfce.test2(_uid);\n    //    return value;\n    // }\n\n    // function diceLoad3() public view returns(uint  value) {\n    //    value = _DiceInterfce.test4();\n    //    return value;\n    // }\n}\n",
  "sourcePath": "I:\\truffleProRoot\\demo2\\contracts\\Blueprint.sol",
  "compiler": {
    "name": "solc",
    "version": "0.8.14+commit.80d49f37.Emscripten.clang"
  },
  "schemaVersion": "3.4.7",
  "updatedAt": "2022-07-04T04:01:38.523Z",
  "networkType": "ethereum",
  "devdoc": {
    "kind": "dev",
    "methods": {},
    "version": 1
  },
  "userdoc": {
    "kind": "user",
    "methods": {},
    "version": 1
  }
}